{
    "_format": "hh-sol-artifact-1",
    "contractName": "Transactions",
    "sourceName": "contracts/Transactions.sol",
    "abi": [
        {
            "anonymous": false,
            "inputs": [
                {
                    "indexed": false,
                    "internalType": "address",
                    "name": "from",
                    "type": "address"
                },
                {
                    "indexed": false,
                    "internalType": "address",
                    "name": "receiver",
                    "type": "address"
                },
                {
                    "indexed": false,
                    "internalType": "uint256",
                    "name": "amount",
                    "type": "uint256"
                },
                {
                    "indexed": false,
                    "internalType": "string",
                    "name": "message",
                    "type": "string"
                },
                {
                    "indexed": false,
                    "internalType": "uint256",
                    "name": "timestamp",
                    "type": "uint256"
                },
                {
                    "indexed": false,
                    "internalType": "string",
                    "name": "keyword",
                    "type": "string"
                }
            ],
            "name": "Transfer",
            "type": "event"
        },
        {
            "inputs": [
                {
                    "internalType": "address payable",
                    "name": "reciever",
                    "type": "address"
                },
                {
                    "internalType": "uint256",
                    "name": "amount",
                    "type": "uint256"
                },
                {
                    "internalType": "string",
                    "name": "message",
                    "type": "string"
                },
                {
                    "internalType": "string",
                    "name": "keyword",
                    "type": "string"
                },
                {
                    "internalType": "uint256",
                    "name": "timestamp",
                    "type": "uint256"
                }
            ],
            "name": "addToBlockchain",
            "outputs": [],
            "stateMutability": "nonpayable",
            "type": "function"
        },
        {
            "inputs": [],
            "name": "getAllTransactions",
            "outputs": [
                {
                    "components": [
                        {
                            "internalType": "address",
                            "name": "sender",
                            "type": "address"
                        },
                        {
                            "internalType": "address",
                            "name": "receiver",
                            "type": "address"
                        },
                        {
                            "internalType": "uint256",
                            "name": "amount",
                            "type": "uint256"
                        },
                        {
                            "internalType": "string",
                            "name": "message",
                            "type": "string"
                        },
                        {
                            "internalType": "uint256",
                            "name": "timestamp",
                            "type": "uint256"
                        },
                        {
                            "internalType": "string",
                            "name": "keyword",
                            "type": "string"
                        }
                    ],
                    "internalType": "struct Transactions.TransferStruct[]",
                    "name": "",
                    "type": "tuple[]"
                }
            ],
            "stateMutability": "view",
            "type": "function"
        },
        {
            "inputs": [],
            "name": "getTransactionCount",
            "outputs": [
                {
                    "internalType": "uint256",
                    "name": "",
                    "type": "uint256"
                }
            ],
            "stateMutability": "view",
            "type": "function"
        }
    ],
    "bytecode": "0x608060405234801561001057600080fd5b50610c22806100206000396000f3fe608060405234801561001057600080fd5b50600436106100415760003560e01c806327506f53146100465780632e7700f0146100645780639c9831bc14610082575b600080fd5b61004e61009e565b60405161005b91906108ce565b60405180910390f35b61006c6102e1565b60405161007991906108f0565b60405180910390f35b61009c600480360381019061009791906105e2565b6102ea565b005b60606001805480602002602001604051908101604052809291908181526020016000905b828210156102d857838290600052602060002090600602016040518060c00160405290816000820160009054906101000a900473ffffffffffffffffffffffffffffffffffffffff1673ffffffffffffffffffffffffffffffffffffffff1673ffffffffffffffffffffffffffffffffffffffff1681526020016001820160009054906101000a900473ffffffffffffffffffffffffffffffffffffffff1673ffffffffffffffffffffffffffffffffffffffff1673ffffffffffffffffffffffffffffffffffffffff168152602001600282015481526020016003820180546101ab90610aee565b80601f01602080910402602001604051908101604052809291908181526020018280546101d790610aee565b80156102245780601f106101f957610100808354040283529160200191610224565b820191906000526020600020905b81548152906001019060200180831161020757829003601f168201915b505050505081526020016004820154815260200160058201805461024790610aee565b80601f016020809104026020016040519081016040528092919081815260200182805461027390610aee565b80156102c05780601f10610295576101008083540402835291602001916102c0565b820191906000526020600020905b8154815290600101906020018083116102a357829003601f168201915b505050505081525050815260200190600101906100c2565b50505050905090565b60008054905090565b60016000808282546102fc91906109d2565b9250508190555060016040518060c001604052803373ffffffffffffffffffffffffffffffffffffffff1681526020018773ffffffffffffffffffffffffffffffffffffffff16815260200186815260200185815260200183815260200184815250908060018154018082558091505060019003906000526020600020906006020160009091909190915060008201518160000160006101000a81548173ffffffffffffffffffffffffffffffffffffffff021916908373ffffffffffffffffffffffffffffffffffffffff16021790555060208201518160010160006101000a81548173ffffffffffffffffffffffffffffffffffffffff021916908373ffffffffffffffffffffffffffffffffffffffff16021790555060408201518160020155606082015181600301908051906020019061043b9291906104ad565b506080820151816004015560a08201518160050190805190602001906104629291906104ad565b5050507f416cfa4330a4565f45c2fd2dd4826a83a37443aba2ce6f79477c7355afac35fa33868686858760405161049e9695949392919061085f565b60405180910390a15050505050565b8280546104b990610aee565b90600052602060002090601f0160209004810192826104db5760008555610522565b82601f106104f457805160ff1916838001178555610522565b82800160010185558215610522579182015b82811115610521578251825591602001919060010190610506565b5b50905061052f9190610533565b5090565b5b8082111561054c576000816000905550600101610534565b5090565b600061056361055e8461093c565b61090b565b90508281526020810184848401111561057b57600080fd5b610586848285610aac565b509392505050565b60008135905061059d81610bbe565b92915050565b600082601f8301126105b457600080fd5b81356105c4848260208601610550565b91505092915050565b6000813590506105dc81610bd5565b92915050565b600080600080600060a086880312156105fa57600080fd5b60006106088882890161058e565b9550506020610619888289016105cd565b945050604086013567ffffffffffffffff81111561063657600080fd5b610642888289016105a3565b935050606086013567ffffffffffffffff81111561065f57600080fd5b61066b888289016105a3565b925050608061067c888289016105cd565b9150509295509295909350565b600061069583836107b1565b905092915050565b6106a681610a76565b82525050565b6106b581610a28565b82525050565b6106c481610a28565b82525050565b60006106d58261097c565b6106df818561099f565b9350836020820285016106f18561096c565b8060005b8581101561072d578484038952815161070e8582610689565b945061071983610992565b925060208a019950506001810190506106f5565b50829750879550505050505092915050565b600061074a82610987565b61075481856109b0565b9350610764818560208601610abb565b61076d81610bad565b840191505092915050565b600061078382610987565b61078d81856109c1565b935061079d818560208601610abb565b6107a681610bad565b840191505092915050565b600060c0830160008301516107c960008601826106ac565b5060208301516107dc60208601826106ac565b5060408301516107ef6040860182610841565b5060608301518482036060860152610807828261073f565b915050608083015161081c6080860182610841565b5060a083015184820360a0860152610834828261073f565b9150508091505092915050565b61084a81610a6c565b82525050565b61085981610a6c565b82525050565b600060c08201905061087460008301896106bb565b610881602083018861069d565b61088e6040830187610850565b81810360608301526108a08186610778565b90506108af6080830185610850565b81810360a08301526108c18184610778565b9050979650505050505050565b600060208201905081810360008301526108e881846106ca565b905092915050565b60006020820190506109056000830184610850565b92915050565b6000604051905081810181811067ffffffffffffffff8211171561093257610931610b7e565b5b8060405250919050565b600067ffffffffffffffff82111561095757610956610b7e565b5b601f19601f8301169050602081019050919050565b6000819050602082019050919050565b600081519050919050565b600081519050919050565b6000602082019050919050565b600082825260208201905092915050565b600082825260208201905092915050565b600082825260208201905092915050565b60006109dd82610a6c565b91506109e883610a6c565b9250827fffffffffffffffffffffffffffffffffffffffffffffffffffffffffffffffff03821115610a1d57610a1c610b20565b5b828201905092915050565b6000610a3382610a4c565b9050919050565b6000610a4582610a4c565b9050919050565b600073ffffffffffffffffffffffffffffffffffffffff82169050919050565b6000819050919050565b6000610a8182610a88565b9050919050565b6000610a9382610a9a565b9050919050565b6000610aa582610a4c565b9050919050565b82818337600083830152505050565b60005b83811015610ad9578082015181840152602081019050610abe565b83811115610ae8576000848401525b50505050565b60006002820490506001821680610b0657607f821691505b60208210811415610b1a57610b19610b4f565b5b50919050565b7f4e487b7100000000000000000000000000000000000000000000000000000000600052601160045260246000fd5b7f4e487b7100000000000000000000000000000000000000000000000000000000600052602260045260246000fd5b7f4e487b7100000000000000000000000000000000000000000000000000000000600052604160045260246000fd5b6000601f19601f8301169050919050565b610bc781610a3a565b8114610bd257600080fd5b50565b610bde81610a6c565b8114610be957600080fd5b5056fea2646970667358221220ee1062db3d4f647096551d8ddc33b45275405bff1a5aa9406b5b21f3b2e6eaa164736f6c63430008000033",
    "linkReferences": {},
    "deployedLinkReferences": {}
}